{
  "contracts/RevnuRegistry.sol": {
    "RevnuRegistry": {
      "abi": [
        {
          "inputs": [
            {
              "internalType": "address",
              "name": "revnuTokenAddress",
              "type": "address"
            }
          ],
          "stateMutability": "nonpayable",
          "type": "constructor"
        },
        {
          "anonymous": false,
          "inputs": [
            {
              "indexed": false,
              "internalType": "uint256",
              "name": "bountyId",
              "type": "uint256"
            },
            {
              "indexed": false,
              "internalType": "string",
              "name": "actionId",
              "type": "string"
            },
            {
              "indexed": false,
              "internalType": "string",
              "name": "actionType",
              "type": "string"
            },
            {
              "indexed": false,
              "internalType": "uint256",
              "name": "actionCount",
              "type": "uint256"
            },
            {
              "indexed": false,
              "internalType": "uint256",
              "name": "actionCompleted",
              "type": "uint256"
            },
            {
              "indexed": false,
              "internalType": "uint256",
              "name": "reward",
              "type": "uint256"
            }
          ],
          "name": "BountyAdded",
          "type": "event"
        },
        {
          "anonymous": false,
          "inputs": [
            {
              "indexed": false,
              "internalType": "uint256",
              "name": "bountyId",
              "type": "uint256"
            },
            {
              "indexed": false,
              "internalType": "bytes32",
              "name": "claimHash",
              "type": "bytes32"
            }
          ],
          "name": "ClaimAdded",
          "type": "event"
        },
        {
          "inputs": [],
          "name": "_bountiesCounter",
          "outputs": [
            {
              "internalType": "uint256",
              "name": "_value",
              "type": "uint256"
            }
          ],
          "stateMutability": "view",
          "type": "function"
        },
        {
          "inputs": [
            {
              "internalType": "uint256",
              "name": "",
              "type": "uint256"
            }
          ],
          "name": "bountyRegistry",
          "outputs": [
            {
              "internalType": "uint256",
              "name": "bountyId",
              "type": "uint256"
            },
            {
              "internalType": "string",
              "name": "actionId",
              "type": "string"
            },
            {
              "internalType": "string",
              "name": "actionType",
              "type": "string"
            },
            {
              "internalType": "uint256",
              "name": "actionCount",
              "type": "uint256"
            },
            {
              "internalType": "uint256",
              "name": "actionCompleted",
              "type": "uint256"
            },
            {
              "internalType": "uint256",
              "name": "reward",
              "type": "uint256"
            }
          ],
          "stateMutability": "view",
          "type": "function"
        },
        {
          "inputs": [
            {
              "internalType": "uint256",
              "name": "_bountyId",
              "type": "uint256"
            }
          ],
          "name": "claimBounty",
          "outputs": [],
          "stateMutability": "payable",
          "type": "function"
        },
        {
          "inputs": [
            {
              "internalType": "bytes32",
              "name": "",
              "type": "bytes32"
            }
          ],
          "name": "claimRegistry",
          "outputs": [
            {
              "internalType": "uint256",
              "name": "bountyId",
              "type": "uint256"
            },
            {
              "internalType": "bytes32",
              "name": "claimHash",
              "type": "bytes32"
            }
          ],
          "stateMutability": "view",
          "type": "function"
        },
        {
          "inputs": [
            {
              "internalType": "string",
              "name": "_actionId",
              "type": "string"
            },
            {
              "internalType": "string",
              "name": "_actionType",
              "type": "string"
            },
            {
              "internalType": "uint256",
              "name": "_actionCount",
              "type": "uint256"
            },
            {
              "internalType": "uint256",
              "name": "_reward",
              "type": "uint256"
            }
          ],
          "name": "createBounty",
          "outputs": [],
          "stateMutability": "payable",
          "type": "function"
        },
        {
          "inputs": [],
          "name": "getLatestBountyId",
          "outputs": [
            {
              "internalType": "uint256",
              "name": "",
              "type": "uint256"
            }
          ],
          "stateMutability": "view",
          "type": "function"
        },
        {
          "inputs": [],
          "name": "revnuToken",
          "outputs": [
            {
              "internalType": "contract RevnuToken",
              "name": "",
              "type": "address"
            }
          ],
          "stateMutability": "view",
          "type": "function"
        }
      ],
      "devdoc": {
        "kind": "dev",
        "methods": {},
        "version": 1
      },
      "evm": {
        "bytecode": {
          "linkReferences": {},
          "object": "608060405234801561001057600080fd5b50604051610c03380380610c0383398101604081905261002f91610054565b600080546001600160a01b0319166001600160a01b0392909216919091179055610084565b60006020828403121561006657600080fd5b81516001600160a01b038116811461007d57600080fd5b9392505050565b610b70806100936000396000f3fe6080604052600436106100705760003560e01c80639aad017e1161004e5780639aad017e146100fb578063a606971914610112578063aeb7c8a314610144578063e31202c01461017c57600080fd5b806344021ad71461007557806356403b941461008a57806379bbce71146100b2575b600080fd5b6100886100833660046108ae565b61018f565b005b34801561009657600080fd5b5061009f61042f565b6040519081526020015b60405180910390f35b3480156100be57600080fd5b506100e66100cd3660046108ae565b6003602052600090815260409020805460019091015482565b604080519283526020830191909152016100a9565b34801561010757600080fd5b5060015461009f9081565b34801561011e57600080fd5b5061013261012d3660046108ae565b61043f565b6040516100a996959493929190610914565b34801561015057600080fd5b50600054610164906001600160a01b031681565b6040516001600160a01b0390911681526020016100a9565b61008861018a366004610a01565b610584565b60008181526002602052604090205481146101ea5760405162461bcd60e51b81526020600482015260166024820152752137bab73a3c903237b2b9903737ba1032bc34b9ba1760511b60448201526064015b60405180910390fd5b60008181526002602052604090206003810154600490910154106102445760405162461bcd60e51b81526020600482015260116024820152702137bab73a3c9031b7b6b83632ba32b21760791b60448201526064016101e1565b6000813360405160200161027492919091825260601b6bffffffffffffffffffffffff1916602082015260340190565b60408051601f198184030181529181528151602092830120600081815260039093529120600101549091508114156102ee5760405162461bcd60e51b815260206004820152601f60248201527f426f756e747920616c726561647920636c61696d656420627920757365722e0060448201526064016101e1565b604080518082018252838152602080820184815260008581526003808452858220945185559151600190940193909355858352600290915291812091820154600590920154909161033e91610a75565b905060016002600085815260200190815260200160002060040160008282546103679190610a97565b909155505060408051848152602081018490527f05032c8dce98383a36455a0840ce14a50599b3ef1feb51dcbca72e157f410278910160405180910390a160005460405163a9059cbb60e01b8152336004820152602481018390526001600160a01b039091169063a9059cbb90604401602060405180830381600087803b1580156103f157600080fd5b505af1158015610405573d6000803e3d6000fd5b505050506040513d601f19601f820116820180604052508101906104299190610abd565b50505050565b600061043a60015490565b905090565b6002602052600090815260409020805460018201805491929161046190610ae6565b80601f016020809104026020016040519081016040528092919081815260200182805461048d90610ae6565b80156104da5780601f106104af576101008083540402835291602001916104da565b820191906000526020600020905b8154815290600101906020018083116104bd57829003601f168201915b5050505050908060020180546104ef90610ae6565b80601f016020809104026020016040519081016040528092919081815260200182805461051b90610ae6565b80156105685780601f1061053d57610100808354040283529160200191610568565b820191906000526020600020905b81548152906001019060200180831161054b57829003601f168201915b5050505050908060030154908060040154908060050154905086565b6000546040516370a0823160e01b815233600482015282916001600160a01b0316906370a082319060240160206040518083038186803b1580156105c757600080fd5b505afa1580156105db573d6000803e3d6000fd5b505050506040513d601f19601f820116820180604052508101906105ff9190610b21565b10156106435760405162461bcd60e51b8152602060048201526013602482015272496e73756666696369656e7420546f6b656e7360681b60448201526064016101e1565b816106905760405162461bcd60e51b815260206004820152601a60248201527f416374696f6e436f756e742063616e6e6f74206265207a65726f00000000000060448201526064016101e1565b61069e600180546001019055565b60006106a960015490565b6040805160c08101825282815260208082018981528284018990526060830188905260006080840181905260a084018890528581526002835293909320825181559251805194955091936107039260018501920190610815565b506040820151805161071f916002840191602090910190610815565b50606082015181600301556080820151816004015560a082015181600501559050507f8ffd410f66eea449ac54831113f08be3cc52acad3964e4e152df5657be8b9c268186868660008760405161077b96959493929190610914565b60405180910390a16000546040516323b872dd60e01b8152336004820152306024820152604481018490526001600160a01b03909116906323b872dd90606401602060405180830381600087803b1580156107d557600080fd5b505af11580156107e9573d6000803e3d6000fd5b505050506040513d601f19601f8201168201806040525081019061080d9190610abd565b505050505050565b82805461082190610ae6565b90600052602060002090601f0160209004810192826108435760008555610889565b82601f1061085c57805160ff1916838001178555610889565b82800160010185558215610889579182015b8281111561088957825182559160200191906001019061086e565b50610895929150610899565b5090565b5b80821115610895576000815560010161089a565b6000602082840312156108c057600080fd5b5035919050565b6000815180845260005b818110156108ed576020818501810151868301820152016108d1565b818111156108ff576000602083870101525b50601f01601f19169290920160200192915050565b86815260c06020820152600061092d60c08301886108c7565b828103604084015261093f81886108c7565b60608401969096525050608081019290925260a0909101529392505050565b634e487b7160e01b600052604160045260246000fd5b600082601f83011261098557600080fd5b813567ffffffffffffffff808211156109a0576109a061095e565b604051601f8301601f19908116603f011681019082821181831017156109c8576109c861095e565b816040528381528660208588010111156109e157600080fd5b836020870160208301376000602085830101528094505050505092915050565b60008060008060808587031215610a1757600080fd5b843567ffffffffffffffff80821115610a2f57600080fd5b610a3b88838901610974565b95506020870135915080821115610a5157600080fd5b50610a5e87828801610974565b949794965050505060408301359260600135919050565b600082610a9257634e487b7160e01b600052601260045260246000fd5b500490565b60008219821115610ab857634e487b7160e01b600052601160045260246000fd5b500190565b600060208284031215610acf57600080fd5b81518015158114610adf57600080fd5b9392505050565b600181811c90821680610afa57607f821691505b60208210811415610b1b57634e487b7160e01b600052602260045260246000fd5b50919050565b600060208284031215610b3357600080fd5b505191905056fea2646970667358221220e8277124399048b03a2b59ad0e70d87267f966bd1a4af7a9ec1b4bf4243a5f5464736f6c63430008090033",
          "opcodes": "PUSH1 0x80 PUSH1 0x40 MSTORE CALLVALUE DUP1 ISZERO PUSH2 0x10 JUMPI PUSH1 0x0 DUP1 REVERT JUMPDEST POP PUSH1 0x40 MLOAD PUSH2 0xC03 CODESIZE SUB DUP1 PUSH2 0xC03 DUP4 CODECOPY DUP2 ADD PUSH1 0x40 DUP2 SWAP1 MSTORE PUSH2 0x2F SWAP2 PUSH2 0x54 JUMP JUMPDEST PUSH1 0x0 DUP1 SLOAD PUSH1 0x1 PUSH1 0x1 PUSH1 0xA0 SHL SUB NOT AND PUSH1 0x1 PUSH1 0x1 PUSH1 0xA0 SHL SUB SWAP3 SWAP1 SWAP3 AND SWAP2 SWAP1 SWAP2 OR SWAP1 SSTORE PUSH2 0x84 JUMP JUMPDEST PUSH1 0x0 PUSH1 0x20 DUP3 DUP5 SUB SLT ISZERO PUSH2 0x66 JUMPI PUSH1 0x0 DUP1 REVERT JUMPDEST DUP2 MLOAD PUSH1 0x1 PUSH1 0x1 PUSH1 0xA0 SHL SUB DUP2 AND DUP2 EQ PUSH2 0x7D JUMPI PUSH1 0x0 DUP1 REVERT JUMPDEST SWAP4 SWAP3 POP POP POP JUMP JUMPDEST PUSH2 0xB70 DUP1 PUSH2 0x93 PUSH1 0x0 CODECOPY PUSH1 0x0 RETURN INVALID PUSH1 0x80 PUSH1 0x40 MSTORE PUSH1 0x4 CALLDATASIZE LT PUSH2 0x70 JUMPI PUSH1 0x0 CALLDATALOAD PUSH1 0xE0 SHR DUP1 PUSH4 0x9AAD017E GT PUSH2 0x4E JUMPI DUP1 PUSH4 0x9AAD017E EQ PUSH2 0xFB JUMPI DUP1 PUSH4 0xA6069719 EQ PUSH2 0x112 JUMPI DUP1 PUSH4 0xAEB7C8A3 EQ PUSH2 0x144 JUMPI DUP1 PUSH4 0xE31202C0 EQ PUSH2 0x17C JUMPI PUSH1 0x0 DUP1 REVERT JUMPDEST DUP1 PUSH4 0x44021AD7 EQ PUSH2 0x75 JUMPI DUP1 PUSH4 0x56403B94 EQ PUSH2 0x8A JUMPI DUP1 PUSH4 0x79BBCE71 EQ PUSH2 0xB2 JUMPI JUMPDEST PUSH1 0x0 DUP1 REVERT JUMPDEST PUSH2 0x88 PUSH2 0x83 CALLDATASIZE PUSH1 0x4 PUSH2 0x8AE JUMP JUMPDEST PUSH2 0x18F JUMP JUMPDEST STOP JUMPDEST CALLVALUE DUP1 ISZERO PUSH2 0x96 JUMPI PUSH1 0x0 DUP1 REVERT JUMPDEST POP PUSH2 0x9F PUSH2 0x42F JUMP JUMPDEST PUSH1 0x40 MLOAD SWAP1 DUP2 MSTORE PUSH1 0x20 ADD JUMPDEST PUSH1 0x40 MLOAD DUP1 SWAP2 SUB SWAP1 RETURN JUMPDEST CALLVALUE DUP1 ISZERO PUSH2 0xBE JUMPI PUSH1 0x0 DUP1 REVERT JUMPDEST POP PUSH2 0xE6 PUSH2 0xCD CALLDATASIZE PUSH1 0x4 PUSH2 0x8AE JUMP JUMPDEST PUSH1 0x3 PUSH1 0x20 MSTORE PUSH1 0x0 SWAP1 DUP2 MSTORE PUSH1 0x40 SWAP1 KECCAK256 DUP1 SLOAD PUSH1 0x1 SWAP1 SWAP2 ADD SLOAD DUP3 JUMP JUMPDEST PUSH1 0x40 DUP1 MLOAD SWAP3 DUP4 MSTORE PUSH1 0x20 DUP4 ADD SWAP2 SWAP1 SWAP2 MSTORE ADD PUSH2 0xA9 JUMP JUMPDEST CALLVALUE DUP1 ISZERO PUSH2 0x107 JUMPI PUSH1 0x0 DUP1 REVERT JUMPDEST POP PUSH1 0x1 SLOAD PUSH2 0x9F SWAP1 DUP2 JUMP JUMPDEST CALLVALUE DUP1 ISZERO PUSH2 0x11E JUMPI PUSH1 0x0 DUP1 REVERT JUMPDEST POP PUSH2 0x132 PUSH2 0x12D CALLDATASIZE PUSH1 0x4 PUSH2 0x8AE JUMP JUMPDEST PUSH2 0x43F JUMP JUMPDEST PUSH1 0x40 MLOAD PUSH2 0xA9 SWAP7 SWAP6 SWAP5 SWAP4 SWAP3 SWAP2 SWAP1 PUSH2 0x914 JUMP JUMPDEST CALLVALUE DUP1 ISZERO PUSH2 0x150 JUMPI PUSH1 0x0 DUP1 REVERT JUMPDEST POP PUSH1 0x0 SLOAD PUSH2 0x164 SWAP1 PUSH1 0x1 PUSH1 0x1 PUSH1 0xA0 SHL SUB AND DUP2 JUMP JUMPDEST PUSH1 0x40 MLOAD PUSH1 0x1 PUSH1 0x1 PUSH1 0xA0 SHL SUB SWAP1 SWAP2 AND DUP2 MSTORE PUSH1 0x20 ADD PUSH2 0xA9 JUMP JUMPDEST PUSH2 0x88 PUSH2 0x18A CALLDATASIZE PUSH1 0x4 PUSH2 0xA01 JUMP JUMPDEST PUSH2 0x584 JUMP JUMPDEST PUSH1 0x0 DUP2 DUP2 MSTORE PUSH1 0x2 PUSH1 0x20 MSTORE PUSH1 0x40 SWAP1 KECCAK256 SLOAD DUP2 EQ PUSH2 0x1EA JUMPI PUSH1 0x40 MLOAD PUSH3 0x461BCD PUSH1 0xE5 SHL DUP2 MSTORE PUSH1 0x20 PUSH1 0x4 DUP3 ADD MSTORE PUSH1 0x16 PUSH1 0x24 DUP3 ADD MSTORE PUSH22 0x2137BAB73A3C903237B2B9903737BA1032BC34B9BA17 PUSH1 0x51 SHL PUSH1 0x44 DUP3 ADD MSTORE PUSH1 0x64 ADD JUMPDEST PUSH1 0x40 MLOAD DUP1 SWAP2 SUB SWAP1 REVERT JUMPDEST PUSH1 0x0 DUP2 DUP2 MSTORE PUSH1 0x2 PUSH1 0x20 MSTORE PUSH1 0x40 SWAP1 KECCAK256 PUSH1 0x3 DUP2 ADD SLOAD PUSH1 0x4 SWAP1 SWAP2 ADD SLOAD LT PUSH2 0x244 JUMPI PUSH1 0x40 MLOAD PUSH3 0x461BCD PUSH1 0xE5 SHL DUP2 MSTORE PUSH1 0x20 PUSH1 0x4 DUP3 ADD MSTORE PUSH1 0x11 PUSH1 0x24 DUP3 ADD MSTORE PUSH17 0x2137BAB73A3C9031B7B6B83632BA32B217 PUSH1 0x79 SHL PUSH1 0x44 DUP3 ADD MSTORE PUSH1 0x64 ADD PUSH2 0x1E1 JUMP JUMPDEST PUSH1 0x0 DUP2 CALLER PUSH1 0x40 MLOAD PUSH1 0x20 ADD PUSH2 0x274 SWAP3 SWAP2 SWAP1 SWAP2 DUP3 MSTORE PUSH1 0x60 SHL PUSH12 0xFFFFFFFFFFFFFFFFFFFFFFFF NOT AND PUSH1 0x20 DUP3 ADD MSTORE PUSH1 0x34 ADD SWAP1 JUMP JUMPDEST PUSH1 0x40 DUP1 MLOAD PUSH1 0x1F NOT DUP2 DUP5 SUB ADD DUP2 MSTORE SWAP2 DUP2 MSTORE DUP2 MLOAD PUSH1 0x20 SWAP3 DUP4 ADD KECCAK256 PUSH1 0x0 DUP2 DUP2 MSTORE PUSH1 0x3 SWAP1 SWAP4 MSTORE SWAP2 KECCAK256 PUSH1 0x1 ADD SLOAD SWAP1 SWAP2 POP DUP2 EQ ISZERO PUSH2 0x2EE JUMPI PUSH1 0x40 MLOAD PUSH3 0x461BCD PUSH1 0xE5 SHL DUP2 MSTORE PUSH1 0x20 PUSH1 0x4 DUP3 ADD MSTORE PUSH1 0x1F PUSH1 0x24 DUP3 ADD MSTORE PUSH32 0x426F756E747920616C726561647920636C61696D656420627920757365722E00 PUSH1 0x44 DUP3 ADD MSTORE PUSH1 0x64 ADD PUSH2 0x1E1 JUMP JUMPDEST PUSH1 0x40 DUP1 MLOAD DUP1 DUP3 ADD DUP3 MSTORE DUP4 DUP2 MSTORE PUSH1 0x20 DUP1 DUP3 ADD DUP5 DUP2 MSTORE PUSH1 0x0 DUP6 DUP2 MSTORE PUSH1 0x3 DUP1 DUP5 MSTORE DUP6 DUP3 KECCAK256 SWAP5 MLOAD DUP6 SSTORE SWAP2 MLOAD PUSH1 0x1 SWAP1 SWAP5 ADD SWAP4 SWAP1 SWAP4 SSTORE DUP6 DUP4 MSTORE PUSH1 0x2 SWAP1 SWAP2 MSTORE SWAP2 DUP2 KECCAK256 SWAP2 DUP3 ADD SLOAD PUSH1 0x5 SWAP1 SWAP3 ADD SLOAD SWAP1 SWAP2 PUSH2 0x33E SWAP2 PUSH2 0xA75 JUMP JUMPDEST SWAP1 POP PUSH1 0x1 PUSH1 0x2 PUSH1 0x0 DUP6 DUP2 MSTORE PUSH1 0x20 ADD SWAP1 DUP2 MSTORE PUSH1 0x20 ADD PUSH1 0x0 KECCAK256 PUSH1 0x4 ADD PUSH1 0x0 DUP3 DUP3 SLOAD PUSH2 0x367 SWAP2 SWAP1 PUSH2 0xA97 JUMP JUMPDEST SWAP1 SWAP2 SSTORE POP POP PUSH1 0x40 DUP1 MLOAD DUP5 DUP2 MSTORE PUSH1 0x20 DUP2 ADD DUP5 SWAP1 MSTORE PUSH32 0x5032C8DCE98383A36455A0840CE14A50599B3EF1FEB51DCBCA72E157F410278 SWAP2 ADD PUSH1 0x40 MLOAD DUP1 SWAP2 SUB SWAP1 LOG1 PUSH1 0x0 SLOAD PUSH1 0x40 MLOAD PUSH4 0xA9059CBB PUSH1 0xE0 SHL DUP2 MSTORE CALLER PUSH1 0x4 DUP3 ADD MSTORE PUSH1 0x24 DUP2 ADD DUP4 SWAP1 MSTORE PUSH1 0x1 PUSH1 0x1 PUSH1 0xA0 SHL SUB SWAP1 SWAP2 AND SWAP1 PUSH4 0xA9059CBB SWAP1 PUSH1 0x44 ADD PUSH1 0x20 PUSH1 0x40 MLOAD DUP1 DUP4 SUB DUP2 PUSH1 0x0 DUP8 DUP1 EXTCODESIZE ISZERO DUP1 ISZERO PUSH2 0x3F1 JUMPI PUSH1 0x0 DUP1 REVERT JUMPDEST POP GAS CALL ISZERO DUP1 ISZERO PUSH2 0x405 JUMPI RETURNDATASIZE PUSH1 0x0 DUP1 RETURNDATACOPY RETURNDATASIZE PUSH1 0x0 REVERT JUMPDEST POP POP POP POP PUSH1 0x40 MLOAD RETURNDATASIZE PUSH1 0x1F NOT PUSH1 0x1F DUP3 ADD AND DUP3 ADD DUP1 PUSH1 0x40 MSTORE POP DUP2 ADD SWAP1 PUSH2 0x429 SWAP2 SWAP1 PUSH2 0xABD JUMP JUMPDEST POP POP POP POP JUMP JUMPDEST PUSH1 0x0 PUSH2 0x43A PUSH1 0x1 SLOAD SWAP1 JUMP JUMPDEST SWAP1 POP SWAP1 JUMP JUMPDEST PUSH1 0x2 PUSH1 0x20 MSTORE PUSH1 0x0 SWAP1 DUP2 MSTORE PUSH1 0x40 SWAP1 KECCAK256 DUP1 SLOAD PUSH1 0x1 DUP3 ADD DUP1 SLOAD SWAP2 SWAP3 SWAP2 PUSH2 0x461 SWAP1 PUSH2 0xAE6 JUMP JUMPDEST DUP1 PUSH1 0x1F ADD PUSH1 0x20 DUP1 SWAP2 DIV MUL PUSH1 0x20 ADD PUSH1 0x40 MLOAD SWAP1 DUP2 ADD PUSH1 0x40 MSTORE DUP1 SWAP3 SWAP2 SWAP1 DUP2 DUP2 MSTORE PUSH1 0x20 ADD DUP3 DUP1 SLOAD PUSH2 0x48D SWAP1 PUSH2 0xAE6 JUMP JUMPDEST DUP1 ISZERO PUSH2 0x4DA JUMPI DUP1 PUSH1 0x1F LT PUSH2 0x4AF JUMPI PUSH2 0x100 DUP1 DUP4 SLOAD DIV MUL DUP4 MSTORE SWAP2 PUSH1 0x20 ADD SWAP2 PUSH2 0x4DA JUMP JUMPDEST DUP3 ADD SWAP2 SWAP1 PUSH1 0x0 MSTORE PUSH1 0x20 PUSH1 0x0 KECCAK256 SWAP1 JUMPDEST DUP2 SLOAD DUP2 MSTORE SWAP1 PUSH1 0x1 ADD SWAP1 PUSH1 0x20 ADD DUP1 DUP4 GT PUSH2 0x4BD JUMPI DUP3 SWAP1 SUB PUSH1 0x1F AND DUP3 ADD SWAP2 JUMPDEST POP POP POP POP POP SWAP1 DUP1 PUSH1 0x2 ADD DUP1 SLOAD PUSH2 0x4EF SWAP1 PUSH2 0xAE6 JUMP JUMPDEST DUP1 PUSH1 0x1F ADD PUSH1 0x20 DUP1 SWAP2 DIV MUL PUSH1 0x20 ADD PUSH1 0x40 MLOAD SWAP1 DUP2 ADD PUSH1 0x40 MSTORE DUP1 SWAP3 SWAP2 SWAP1 DUP2 DUP2 MSTORE PUSH1 0x20 ADD DUP3 DUP1 SLOAD PUSH2 0x51B SWAP1 PUSH2 0xAE6 JUMP JUMPDEST DUP1 ISZERO PUSH2 0x568 JUMPI DUP1 PUSH1 0x1F LT PUSH2 0x53D JUMPI PUSH2 0x100 DUP1 DUP4 SLOAD DIV MUL DUP4 MSTORE SWAP2 PUSH1 0x20 ADD SWAP2 PUSH2 0x568 JUMP JUMPDEST DUP3 ADD SWAP2 SWAP1 PUSH1 0x0 MSTORE PUSH1 0x20 PUSH1 0x0 KECCAK256 SWAP1 JUMPDEST DUP2 SLOAD DUP2 MSTORE SWAP1 PUSH1 0x1 ADD SWAP1 PUSH1 0x20 ADD DUP1 DUP4 GT PUSH2 0x54B JUMPI DUP3 SWAP1 SUB PUSH1 0x1F AND DUP3 ADD SWAP2 JUMPDEST POP POP POP POP POP SWAP1 DUP1 PUSH1 0x3 ADD SLOAD SWAP1 DUP1 PUSH1 0x4 ADD SLOAD SWAP1 DUP1 PUSH1 0x5 ADD SLOAD SWAP1 POP DUP7 JUMP JUMPDEST PUSH1 0x0 SLOAD PUSH1 0x40 MLOAD PUSH4 0x70A08231 PUSH1 0xE0 SHL DUP2 MSTORE CALLER PUSH1 0x4 DUP3 ADD MSTORE DUP3 SWAP2 PUSH1 0x1 PUSH1 0x1 PUSH1 0xA0 SHL SUB AND SWAP1 PUSH4 0x70A08231 SWAP1 PUSH1 0x24 ADD PUSH1 0x20 PUSH1 0x40 MLOAD DUP1 DUP4 SUB DUP2 DUP7 DUP1 EXTCODESIZE ISZERO DUP1 ISZERO PUSH2 0x5C7 JUMPI PUSH1 0x0 DUP1 REVERT JUMPDEST POP GAS STATICCALL ISZERO DUP1 ISZERO PUSH2 0x5DB JUMPI RETURNDATASIZE PUSH1 0x0 DUP1 RETURNDATACOPY RETURNDATASIZE PUSH1 0x0 REVERT JUMPDEST POP POP POP POP PUSH1 0x40 MLOAD RETURNDATASIZE PUSH1 0x1F NOT PUSH1 0x1F DUP3 ADD AND DUP3 ADD DUP1 PUSH1 0x40 MSTORE POP DUP2 ADD SWAP1 PUSH2 0x5FF SWAP2 SWAP1 PUSH2 0xB21 JUMP JUMPDEST LT ISZERO PUSH2 0x643 JUMPI PUSH1 0x40 MLOAD PUSH3 0x461BCD PUSH1 0xE5 SHL DUP2 MSTORE PUSH1 0x20 PUSH1 0x4 DUP3 ADD MSTORE PUSH1 0x13 PUSH1 0x24 DUP3 ADD MSTORE PUSH19 0x496E73756666696369656E7420546F6B656E73 PUSH1 0x68 SHL PUSH1 0x44 DUP3 ADD MSTORE PUSH1 0x64 ADD PUSH2 0x1E1 JUMP JUMPDEST DUP2 PUSH2 0x690 JUMPI PUSH1 0x40 MLOAD PUSH3 0x461BCD PUSH1 0xE5 SHL DUP2 MSTORE PUSH1 0x20 PUSH1 0x4 DUP3 ADD MSTORE PUSH1 0x1A PUSH1 0x24 DUP3 ADD MSTORE PUSH32 0x416374696F6E436F756E742063616E6E6F74206265207A65726F000000000000 PUSH1 0x44 DUP3 ADD MSTORE PUSH1 0x64 ADD PUSH2 0x1E1 JUMP JUMPDEST PUSH2 0x69E PUSH1 0x1 DUP1 SLOAD PUSH1 0x1 ADD SWAP1 SSTORE JUMP JUMPDEST PUSH1 0x0 PUSH2 0x6A9 PUSH1 0x1 SLOAD SWAP1 JUMP JUMPDEST PUSH1 0x40 DUP1 MLOAD PUSH1 0xC0 DUP2 ADD DUP3 MSTORE DUP3 DUP2 MSTORE PUSH1 0x20 DUP1 DUP3 ADD DUP10 DUP2 MSTORE DUP3 DUP5 ADD DUP10 SWAP1 MSTORE PUSH1 0x60 DUP4 ADD DUP9 SWAP1 MSTORE PUSH1 0x0 PUSH1 0x80 DUP5 ADD DUP2 SWAP1 MSTORE PUSH1 0xA0 DUP5 ADD DUP9 SWAP1 MSTORE DUP6 DUP2 MSTORE PUSH1 0x2 DUP4 MSTORE SWAP4 SWAP1 SWAP4 KECCAK256 DUP3 MLOAD DUP2 SSTORE SWAP3 MLOAD DUP1 MLOAD SWAP5 SWAP6 POP SWAP2 SWAP4 PUSH2 0x703 SWAP3 PUSH1 0x1 DUP6 ADD SWAP3 ADD SWAP1 PUSH2 0x815 JUMP JUMPDEST POP PUSH1 0x40 DUP3 ADD MLOAD DUP1 MLOAD PUSH2 0x71F SWAP2 PUSH1 0x2 DUP5 ADD SWAP2 PUSH1 0x20 SWAP1 SWAP2 ADD SWAP1 PUSH2 0x815 JUMP JUMPDEST POP PUSH1 0x60 DUP3 ADD MLOAD DUP2 PUSH1 0x3 ADD SSTORE PUSH1 0x80 DUP3 ADD MLOAD DUP2 PUSH1 0x4 ADD SSTORE PUSH1 0xA0 DUP3 ADD MLOAD DUP2 PUSH1 0x5 ADD SSTORE SWAP1 POP POP PUSH32 0x8FFD410F66EEA449AC54831113F08BE3CC52ACAD3964E4E152DF5657BE8B9C26 DUP2 DUP7 DUP7 DUP7 PUSH1 0x0 DUP8 PUSH1 0x40 MLOAD PUSH2 0x77B SWAP7 SWAP6 SWAP5 SWAP4 SWAP3 SWAP2 SWAP1 PUSH2 0x914 JUMP JUMPDEST PUSH1 0x40 MLOAD DUP1 SWAP2 SUB SWAP1 LOG1 PUSH1 0x0 SLOAD PUSH1 0x40 MLOAD PUSH4 0x23B872DD PUSH1 0xE0 SHL DUP2 MSTORE CALLER PUSH1 0x4 DUP3 ADD MSTORE ADDRESS PUSH1 0x24 DUP3 ADD MSTORE PUSH1 0x44 DUP2 ADD DUP5 SWAP1 MSTORE PUSH1 0x1 PUSH1 0x1 PUSH1 0xA0 SHL SUB SWAP1 SWAP2 AND SWAP1 PUSH4 0x23B872DD SWAP1 PUSH1 0x64 ADD PUSH1 0x20 PUSH1 0x40 MLOAD DUP1 DUP4 SUB DUP2 PUSH1 0x0 DUP8 DUP1 EXTCODESIZE ISZERO DUP1 ISZERO PUSH2 0x7D5 JUMPI PUSH1 0x0 DUP1 REVERT JUMPDEST POP GAS CALL ISZERO DUP1 ISZERO PUSH2 0x7E9 JUMPI RETURNDATASIZE PUSH1 0x0 DUP1 RETURNDATACOPY RETURNDATASIZE PUSH1 0x0 REVERT JUMPDEST POP POP POP POP PUSH1 0x40 MLOAD RETURNDATASIZE PUSH1 0x1F NOT PUSH1 0x1F DUP3 ADD AND DUP3 ADD DUP1 PUSH1 0x40 MSTORE POP DUP2 ADD SWAP1 PUSH2 0x80D SWAP2 SWAP1 PUSH2 0xABD JUMP JUMPDEST POP POP POP POP POP POP JUMP JUMPDEST DUP3 DUP1 SLOAD PUSH2 0x821 SWAP1 PUSH2 0xAE6 JUMP JUMPDEST SWAP1 PUSH1 0x0 MSTORE PUSH1 0x20 PUSH1 0x0 KECCAK256 SWAP1 PUSH1 0x1F ADD PUSH1 0x20 SWAP1 DIV DUP2 ADD SWAP3 DUP3 PUSH2 0x843 JUMPI PUSH1 0x0 DUP6 SSTORE PUSH2 0x889 JUMP JUMPDEST DUP3 PUSH1 0x1F LT PUSH2 0x85C JUMPI DUP1 MLOAD PUSH1 0xFF NOT AND DUP4 DUP1 ADD OR DUP6 SSTORE PUSH2 0x889 JUMP JUMPDEST DUP3 DUP1 ADD PUSH1 0x1 ADD DUP6 SSTORE DUP3 ISZERO PUSH2 0x889 JUMPI SWAP2 DUP3 ADD JUMPDEST DUP3 DUP2 GT ISZERO PUSH2 0x889 JUMPI DUP3 MLOAD DUP3 SSTORE SWAP2 PUSH1 0x20 ADD SWAP2 SWAP1 PUSH1 0x1 ADD SWAP1 PUSH2 0x86E JUMP JUMPDEST POP PUSH2 0x895 SWAP3 SWAP2 POP PUSH2 0x899 JUMP JUMPDEST POP SWAP1 JUMP JUMPDEST JUMPDEST DUP1 DUP3 GT ISZERO PUSH2 0x895 JUMPI PUSH1 0x0 DUP2 SSTORE PUSH1 0x1 ADD PUSH2 0x89A JUMP JUMPDEST PUSH1 0x0 PUSH1 0x20 DUP3 DUP5 SUB SLT ISZERO PUSH2 0x8C0 JUMPI PUSH1 0x0 DUP1 REVERT JUMPDEST POP CALLDATALOAD SWAP2 SWAP1 POP JUMP JUMPDEST PUSH1 0x0 DUP2 MLOAD DUP1 DUP5 MSTORE PUSH1 0x0 JUMPDEST DUP2 DUP2 LT ISZERO PUSH2 0x8ED JUMPI PUSH1 0x20 DUP2 DUP6 ADD DUP2 ADD MLOAD DUP7 DUP4 ADD DUP3 ADD MSTORE ADD PUSH2 0x8D1 JUMP JUMPDEST DUP2 DUP2 GT ISZERO PUSH2 0x8FF JUMPI PUSH1 0x0 PUSH1 0x20 DUP4 DUP8 ADD ADD MSTORE JUMPDEST POP PUSH1 0x1F ADD PUSH1 0x1F NOT AND SWAP3 SWAP1 SWAP3 ADD PUSH1 0x20 ADD SWAP3 SWAP2 POP POP JUMP JUMPDEST DUP7 DUP2 MSTORE PUSH1 0xC0 PUSH1 0x20 DUP3 ADD MSTORE PUSH1 0x0 PUSH2 0x92D PUSH1 0xC0 DUP4 ADD DUP9 PUSH2 0x8C7 JUMP JUMPDEST DUP3 DUP2 SUB PUSH1 0x40 DUP5 ADD MSTORE PUSH2 0x93F DUP2 DUP9 PUSH2 0x8C7 JUMP JUMPDEST PUSH1 0x60 DUP5 ADD SWAP7 SWAP1 SWAP7 MSTORE POP POP PUSH1 0x80 DUP2 ADD SWAP3 SWAP1 SWAP3 MSTORE PUSH1 0xA0 SWAP1 SWAP2 ADD MSTORE SWAP4 SWAP3 POP POP POP JUMP JUMPDEST PUSH4 0x4E487B71 PUSH1 0xE0 SHL PUSH1 0x0 MSTORE PUSH1 0x41 PUSH1 0x4 MSTORE PUSH1 0x24 PUSH1 0x0 REVERT JUMPDEST PUSH1 0x0 DUP3 PUSH1 0x1F DUP4 ADD SLT PUSH2 0x985 JUMPI PUSH1 0x0 DUP1 REVERT JUMPDEST DUP2 CALLDATALOAD PUSH8 0xFFFFFFFFFFFFFFFF DUP1 DUP3 GT ISZERO PUSH2 0x9A0 JUMPI PUSH2 0x9A0 PUSH2 0x95E JUMP JUMPDEST PUSH1 0x40 MLOAD PUSH1 0x1F DUP4 ADD PUSH1 0x1F NOT SWAP1 DUP2 AND PUSH1 0x3F ADD AND DUP2 ADD SWAP1 DUP3 DUP3 GT DUP2 DUP4 LT OR ISZERO PUSH2 0x9C8 JUMPI PUSH2 0x9C8 PUSH2 0x95E JUMP JUMPDEST DUP2 PUSH1 0x40 MSTORE DUP4 DUP2 MSTORE DUP7 PUSH1 0x20 DUP6 DUP9 ADD ADD GT ISZERO PUSH2 0x9E1 JUMPI PUSH1 0x0 DUP1 REVERT JUMPDEST DUP4 PUSH1 0x20 DUP8 ADD PUSH1 0x20 DUP4 ADD CALLDATACOPY PUSH1 0x0 PUSH1 0x20 DUP6 DUP4 ADD ADD MSTORE DUP1 SWAP5 POP POP POP POP POP SWAP3 SWAP2 POP POP JUMP JUMPDEST PUSH1 0x0 DUP1 PUSH1 0x0 DUP1 PUSH1 0x80 DUP6 DUP8 SUB SLT ISZERO PUSH2 0xA17 JUMPI PUSH1 0x0 DUP1 REVERT JUMPDEST DUP5 CALLDATALOAD PUSH8 0xFFFFFFFFFFFFFFFF DUP1 DUP3 GT ISZERO PUSH2 0xA2F JUMPI PUSH1 0x0 DUP1 REVERT JUMPDEST PUSH2 0xA3B DUP9 DUP4 DUP10 ADD PUSH2 0x974 JUMP JUMPDEST SWAP6 POP PUSH1 0x20 DUP8 ADD CALLDATALOAD SWAP2 POP DUP1 DUP3 GT ISZERO PUSH2 0xA51 JUMPI PUSH1 0x0 DUP1 REVERT JUMPDEST POP PUSH2 0xA5E DUP8 DUP3 DUP9 ADD PUSH2 0x974 JUMP JUMPDEST SWAP5 SWAP8 SWAP5 SWAP7 POP POP POP POP PUSH1 0x40 DUP4 ADD CALLDATALOAD SWAP3 PUSH1 0x60 ADD CALLDATALOAD SWAP2 SWAP1 POP JUMP JUMPDEST PUSH1 0x0 DUP3 PUSH2 0xA92 JUMPI PUSH4 0x4E487B71 PUSH1 0xE0 SHL PUSH1 0x0 MSTORE PUSH1 0x12 PUSH1 0x4 MSTORE PUSH1 0x24 PUSH1 0x0 REVERT JUMPDEST POP DIV SWAP1 JUMP JUMPDEST PUSH1 0x0 DUP3 NOT DUP3 GT ISZERO PUSH2 0xAB8 JUMPI PUSH4 0x4E487B71 PUSH1 0xE0 SHL PUSH1 0x0 MSTORE PUSH1 0x11 PUSH1 0x4 MSTORE PUSH1 0x24 PUSH1 0x0 REVERT JUMPDEST POP ADD SWAP1 JUMP JUMPDEST PUSH1 0x0 PUSH1 0x20 DUP3 DUP5 SUB SLT ISZERO PUSH2 0xACF JUMPI PUSH1 0x0 DUP1 REVERT JUMPDEST DUP2 MLOAD DUP1 ISZERO ISZERO DUP2 EQ PUSH2 0xADF JUMPI PUSH1 0x0 DUP1 REVERT JUMPDEST SWAP4 SWAP3 POP POP POP JUMP JUMPDEST PUSH1 0x1 DUP2 DUP2 SHR SWAP1 DUP3 AND DUP1 PUSH2 0xAFA JUMPI PUSH1 0x7F DUP3 AND SWAP2 POP JUMPDEST PUSH1 0x20 DUP3 LT DUP2 EQ ISZERO PUSH2 0xB1B JUMPI PUSH4 0x4E487B71 PUSH1 0xE0 SHL PUSH1 0x0 MSTORE PUSH1 0x22 PUSH1 0x4 MSTORE PUSH1 0x24 PUSH1 0x0 REVERT JUMPDEST POP SWAP2 SWAP1 POP JUMP JUMPDEST PUSH1 0x0 PUSH1 0x20 DUP3 DUP5 SUB SLT ISZERO PUSH2 0xB33 JUMPI PUSH1 0x0 DUP1 REVERT JUMPDEST POP MLOAD SWAP2 SWAP1 POP JUMP INVALID LOG2 PUSH5 0x6970667358 0x22 SLT KECCAK256 0xE8 0x27 PUSH18 0x24399048B03A2B59AD0E70D87267F966BD1A 0x4A 0xF7 0xA9 0xEC SHL 0x4B DELEGATECALL 0x24 GASPRICE 0x5F SLOAD PUSH5 0x736F6C6343 STOP ADDMOD MULMOD STOP CALLER "
        },
        "gasEstimates": {
          "creation": {
            "codeDepositCost": "585600",
            "executionCost": "infinite",
            "totalCost": "infinite"
          },
          "external": {
            "_bountiesCounter()": "2287",
            "bountyRegistry(uint256)": "infinite",
            "claimBounty(uint256)": "infinite",
            "claimRegistry(bytes32)": "4622",
            "createBounty(string,string,uint256,uint256)": "infinite",
            "getLatestBountyId()": "2342",
            "revnuToken()": "2381"
          }
        },
        "methodIdentifiers": {
          "_bountiesCounter()": "9aad017e",
          "bountyRegistry(uint256)": "a6069719",
          "claimBounty(uint256)": "44021ad7",
          "claimRegistry(bytes32)": "79bbce71",
          "createBounty(string,string,uint256,uint256)": "e31202c0",
          "getLatestBountyId()": "56403b94",
          "revnuToken()": "aeb7c8a3"
        }
      },
      "storageLayout": {
        "storage": [
          {
            "astId": 954,
            "contract": "contracts/RevnuRegistry.sol:RevnuRegistry",
            "label": "revnuToken",
            "offset": 0,
            "slot": "0",
            "type": "t_contract(RevnuToken)1238"
          },
          {
            "astId": 957,
            "contract": "contracts/RevnuRegistry.sol:RevnuRegistry",
            "label": "_bountiesCounter",
            "offset": 0,
            "slot": "1",
            "type": "t_struct(Counter)874_storage"
          },
          {
            "astId": 992,
            "contract": "contracts/RevnuRegistry.sol:RevnuRegistry",
            "label": "bountyRegistry",
            "offset": 0,
            "slot": "2",
            "type": "t_mapping(t_uint256,t_struct(Bounty)982_storage)"
          },
          {
            "astId": 997,
            "contract": "contracts/RevnuRegistry.sol:RevnuRegistry",
            "label": "claimRegistry",
            "offset": 0,
            "slot": "3",
            "type": "t_mapping(t_bytes32,t_struct(Claim)987_storage)"
          }
        ],
        "types": {
          "t_bytes32": {
            "encoding": "inplace",
            "label": "bytes32",
            "numberOfBytes": "32"
          },
          "t_contract(RevnuToken)1238": {
            "encoding": "inplace",
            "label": "contract RevnuToken",
            "numberOfBytes": "20"
          },
          "t_mapping(t_bytes32,t_struct(Claim)987_storage)": {
            "encoding": "mapping",
            "key": "t_bytes32",
            "label": "mapping(bytes32 => struct RevnuRegistry.Claim)",
            "numberOfBytes": "32",
            "value": "t_struct(Claim)987_storage"
          },
          "t_mapping(t_uint256,t_struct(Bounty)982_storage)": {
            "encoding": "mapping",
            "key": "t_uint256",
            "label": "mapping(uint256 => struct RevnuRegistry.Bounty)",
            "numberOfBytes": "32",
            "value": "t_struct(Bounty)982_storage"
          },
          "t_string_storage": {
            "encoding": "bytes",
            "label": "string",
            "numberOfBytes": "32"
          },
          "t_struct(Bounty)982_storage": {
            "encoding": "inplace",
            "label": "struct RevnuRegistry.Bounty",
            "members": [
              {
                "astId": 971,
                "contract": "contracts/RevnuRegistry.sol:RevnuRegistry",
                "label": "bountyId",
                "offset": 0,
                "slot": "0",
                "type": "t_uint256"
              },
              {
                "astId": 973,
                "contract": "contracts/RevnuRegistry.sol:RevnuRegistry",
                "label": "actionId",
                "offset": 0,
                "slot": "1",
                "type": "t_string_storage"
              },
              {
                "astId": 975,
                "contract": "contracts/RevnuRegistry.sol:RevnuRegistry",
                "label": "actionType",
                "offset": 0,
                "slot": "2",
                "type": "t_string_storage"
              },
              {
                "astId": 977,
                "contract": "contracts/RevnuRegistry.sol:RevnuRegistry",
                "label": "actionCount",
                "offset": 0,
                "slot": "3",
                "type": "t_uint256"
              },
              {
                "astId": 979,
                "contract": "contracts/RevnuRegistry.sol:RevnuRegistry",
                "label": "actionCompleted",
                "offset": 0,
                "slot": "4",
                "type": "t_uint256"
              },
              {
                "astId": 981,
                "contract": "contracts/RevnuRegistry.sol:RevnuRegistry",
                "label": "reward",
                "offset": 0,
                "slot": "5",
                "type": "t_uint256"
              }
            ],
            "numberOfBytes": "192"
          },
          "t_struct(Claim)987_storage": {
            "encoding": "inplace",
            "label": "struct RevnuRegistry.Claim",
            "members": [
              {
                "astId": 984,
                "contract": "contracts/RevnuRegistry.sol:RevnuRegistry",
                "label": "bountyId",
                "offset": 0,
                "slot": "0",
                "type": "t_uint256"
              },
              {
                "astId": 986,
                "contract": "contracts/RevnuRegistry.sol:RevnuRegistry",
                "label": "claimHash",
                "offset": 0,
                "slot": "1",
                "type": "t_bytes32"
              }
            ],
            "numberOfBytes": "64"
          },
          "t_struct(Counter)874_storage": {
            "encoding": "inplace",
            "label": "struct Counters.Counter",
            "members": [
              {
                "astId": 873,
                "contract": "contracts/RevnuRegistry.sol:RevnuRegistry",
                "label": "_value",
                "offset": 0,
                "slot": "0",
                "type": "t_uint256"
              }
            ],
            "numberOfBytes": "32"
          },
          "t_uint256": {
            "encoding": "inplace",
            "label": "uint256",
            "numberOfBytes": "32"
          }
        }
      },
      "userdoc": {
        "kind": "user",
        "methods": {},
        "version": 1
      }
    }
  }
}