{
  "_format": "hh-sol-artifact-1",
  "contractName": "RevnuRegistry",
  "sourceName": "contracts/RevnuRegistry.sol",
  "abi": [
    {
      "inputs": [
        {
          "internalType": "address",
          "name": "revnuTokenAddress",
          "type": "address"
        }
      ],
      "stateMutability": "nonpayable",
      "type": "constructor"
    },
    {
      "anonymous": false,
      "inputs": [
        {
          "indexed": false,
          "internalType": "uint256",
          "name": "bountyId",
          "type": "uint256"
        },
        {
          "indexed": false,
          "internalType": "string",
          "name": "actionId",
          "type": "string"
        },
        {
          "indexed": false,
          "internalType": "string",
          "name": "actionType",
          "type": "string"
        },
        {
          "indexed": false,
          "internalType": "uint256",
          "name": "actionCount",
          "type": "uint256"
        },
        {
          "indexed": false,
          "internalType": "uint256",
          "name": "reward",
          "type": "uint256"
        }
      ],
      "name": "BountyAdded",
      "type": "event"
    },
    {
      "anonymous": false,
      "inputs": [
        {
          "indexed": false,
          "internalType": "uint256",
          "name": "claimId",
          "type": "uint256"
        },
        {
          "indexed": false,
          "internalType": "uint256",
          "name": "bountyId",
          "type": "uint256"
        },
        {
          "indexed": false,
          "internalType": "string",
          "name": "_proof",
          "type": "string"
        }
      ],
      "name": "ClaimAdded",
      "type": "event"
    },
    {
      "inputs": [],
      "name": "_bountiesCounter",
      "outputs": [
        {
          "internalType": "uint256",
          "name": "_value",
          "type": "uint256"
        }
      ],
      "stateMutability": "view",
      "type": "function"
    },
    {
      "inputs": [],
      "name": "_claimsCounter",
      "outputs": [
        {
          "internalType": "uint256",
          "name": "_value",
          "type": "uint256"
        }
      ],
      "stateMutability": "view",
      "type": "function"
    },
    {
      "inputs": [
        {
          "internalType": "uint256",
          "name": "",
          "type": "uint256"
        }
      ],
      "name": "bountyRegistry",
      "outputs": [
        {
          "internalType": "uint256",
          "name": "bountyId",
          "type": "uint256"
        },
        {
          "internalType": "string",
          "name": "actionId",
          "type": "string"
        },
        {
          "internalType": "string",
          "name": "actionType",
          "type": "string"
        },
        {
          "internalType": "uint256",
          "name": "actionCount",
          "type": "uint256"
        },
        {
          "internalType": "uint256",
          "name": "reward",
          "type": "uint256"
        }
      ],
      "stateMutability": "view",
      "type": "function"
    },
    {
      "inputs": [
        {
          "internalType": "uint256",
          "name": "_bountyId",
          "type": "uint256"
        },
        {
          "internalType": "string",
          "name": "_proof",
          "type": "string"
        }
      ],
      "name": "claimBounty",
      "outputs": [],
      "stateMutability": "payable",
      "type": "function"
    },
    {
      "inputs": [
        {
          "internalType": "uint256",
          "name": "",
          "type": "uint256"
        }
      ],
      "name": "claimRegistry",
      "outputs": [
        {
          "internalType": "uint256",
          "name": "claimId",
          "type": "uint256"
        },
        {
          "internalType": "uint256",
          "name": "bountyId",
          "type": "uint256"
        },
        {
          "internalType": "string",
          "name": "proof",
          "type": "string"
        }
      ],
      "stateMutability": "view",
      "type": "function"
    },
    {
      "inputs": [
        {
          "internalType": "string",
          "name": "_actionId",
          "type": "string"
        },
        {
          "internalType": "string",
          "name": "_actionType",
          "type": "string"
        },
        {
          "internalType": "uint256",
          "name": "_actionCount",
          "type": "uint256"
        },
        {
          "internalType": "uint256",
          "name": "_reward",
          "type": "uint256"
        }
      ],
      "name": "createBounty",
      "outputs": [],
      "stateMutability": "payable",
      "type": "function"
    },
    {
      "inputs": [],
      "name": "getLatestBountyId",
      "outputs": [
        {
          "internalType": "uint256",
          "name": "",
          "type": "uint256"
        }
      ],
      "stateMutability": "view",
      "type": "function"
    },
    {
      "inputs": [],
      "name": "getLatestClaimId",
      "outputs": [
        {
          "internalType": "uint256",
          "name": "",
          "type": "uint256"
        }
      ],
      "stateMutability": "view",
      "type": "function"
    },
    {
      "inputs": [],
      "name": "revnuToken",
      "outputs": [
        {
          "internalType": "contract RevnuToken",
          "name": "",
          "type": "address"
        }
      ],
      "stateMutability": "view",
      "type": "function"
    }
  ],
  "bytecode": "0x608060405234801561001057600080fd5b50604051610bd2380380610bd283398101604081905261002f91610054565b600080546001600160a01b0319166001600160a01b0392909216919091179055610084565b60006020828403121561006657600080fd5b81516001600160a01b038116811461007d57600080fd5b9392505050565b610b3f806100936000396000f3fe6080604052600436106100865760003560e01c8063705003881161005957806370500388146101125780639aad017e14610127578063a60697191461013e578063aeb7c8a31461016f578063e31202c0146101a757600080fd5b80631a4265501461008b5780632ba78d5e146100a057806356403b94146100d85780635a8d892f146100fb575b600080fd5b61009e6100993660046108e1565b6101ba565b005b3480156100ac57600080fd5b506100c06100bb366004610928565b610371565b6040516100cf9392919061098e565b60405180910390f35b3480156100e457600080fd5b506100ed61041c565b6040519081526020016100cf565b34801561010757600080fd5b506002546100ed9081565b34801561011e57600080fd5b506100ed61042c565b34801561013357600080fd5b506001546100ed9081565b34801561014a57600080fd5b5061015e610159366004610928565b610437565b6040516100cf9594939291906109b6565b34801561017b57600080fd5b5060005461018f906001600160a01b031681565b6040516001600160a01b0390911681526020016100cf565b61009e6101b53660046109f6565b610576565b6101c8600280546001019055565b60006101d360025490565b60408051606081018252828152602080820187815282840187815260008681526004845294909420835181559051600182015592518051949550919361021f92600285019201906107a5565b505050600083815260036020819052604090912001546102865760405162461bcd60e51b815260206004820152601a60248201527f416374696f6e436f756e742063616e6e6f74206265207a65726f00000000000060448201526064015b60405180910390fd5b60008381526003602081905260408220908101546004909101546102aa9190610a6a565b60005460405163a9059cbb60e01b8152336004820152602481018390529192506001600160a01b03169063a9059cbb90604401602060405180830381600087803b1580156102f757600080fd5b505af115801561030b573d6000803e3d6000fd5b505050506040513d601f19601f8201168201806040525081019061032f9190610a8c565b507f058555d95202b34aa351586bcee4b0f64778cc5629cfc8f8da9fcaac87b859888285856040516103639392919061098e565b60405180910390a150505050565b6004602052600090815260409020805460018201546002830180549293919261039990610ab5565b80601f01602080910402602001604051908101604052809291908181526020018280546103c590610ab5565b80156104125780601f106103e757610100808354040283529160200191610412565b820191906000526020600020905b8154815290600101906020018083116103f557829003601f168201915b5050505050905083565b600061042760015490565b905090565b600061042760025490565b6003602052600090815260409020805460018201805491929161045990610ab5565b80601f016020809104026020016040519081016040528092919081815260200182805461048590610ab5565b80156104d25780601f106104a7576101008083540402835291602001916104d2565b820191906000526020600020905b8154815290600101906020018083116104b557829003601f168201915b5050505050908060020180546104e790610ab5565b80601f016020809104026020016040519081016040528092919081815260200182805461051390610ab5565b80156105605780601f1061053557610100808354040283529160200191610560565b820191906000526020600020905b81548152906001019060200180831161054357829003601f168201915b5050505050908060030154908060040154905085565b6000546040516370a0823160e01b815233600482015282916001600160a01b0316906370a082319060240160206040518083038186803b1580156105b957600080fd5b505afa1580156105cd573d6000803e3d6000fd5b505050506040513d601f19601f820116820180604052508101906105f19190610af0565b10156106355760405162461bcd60e51b8152602060048201526013602482015272496e73756666696369656e7420546f6b656e7360681b604482015260640161027d565b610643600180546001019055565b600061064e60015490565b6040805160a0810182528281526020808201898152828401899052606083018890526080830187905260008581526003835293909320825181559251805194955091936106a192600185019201906107a5565b50604082015180516106bd9160028401916020909101906107a5565b50606082015160038201556080909101516004918201556000546040516323b872dd60e01b81523392810192909252306024830152604482018490526001600160a01b0316906323b872dd90606401602060405180830381600087803b15801561072657600080fd5b505af115801561073a573d6000803e3d6000fd5b505050506040513d601f19601f8201168201806040525081019061075e9190610a8c565b507f7d26ac516e93aaa9e6a73d80726eafead665ce72339679f82bcb098e6ef4f40781868686866040516107969594939291906109b6565b60405180910390a15050505050565b8280546107b190610ab5565b90600052602060002090601f0160209004810192826107d35760008555610819565b82601f106107ec57805160ff1916838001178555610819565b82800160010185558215610819579182015b828111156108195782518255916020019190600101906107fe565b50610825929150610829565b5090565b5b80821115610825576000815560010161082a565b634e487b7160e01b600052604160045260246000fd5b600082601f83011261086557600080fd5b813567ffffffffffffffff808211156108805761088061083e565b604051601f8301601f19908116603f011681019082821181831017156108a8576108a861083e565b816040528381528660208588010111156108c157600080fd5b836020870160208301376000602085830101528094505050505092915050565b600080604083850312156108f457600080fd5b82359150602083013567ffffffffffffffff81111561091257600080fd5b61091e85828601610854565b9150509250929050565b60006020828403121561093a57600080fd5b5035919050565b6000815180845260005b818110156109675760208185018101518683018201520161094b565b81811115610979576000602083870101525b50601f01601f19169290920160200192915050565b8381528260208201526060604082015260006109ad6060830184610941565b95945050505050565b85815260a0602082015260006109cf60a0830187610941565b82810360408401526109e18187610941565b60608401959095525050608001529392505050565b60008060008060808587031215610a0c57600080fd5b843567ffffffffffffffff80821115610a2457600080fd5b610a3088838901610854565b95506020870135915080821115610a4657600080fd5b50610a5387828801610854565b949794965050505060408301359260600135919050565b600082610a8757634e487b7160e01b600052601260045260246000fd5b500490565b600060208284031215610a9e57600080fd5b81518015158114610aae57600080fd5b9392505050565b600181811c90821680610ac957607f821691505b60208210811415610aea57634e487b7160e01b600052602260045260246000fd5b50919050565b600060208284031215610b0257600080fd5b505191905056fea264697066735822122061b8dd42d4ff75f9df6edcfe9ec0a63e5d542a624e68cccb3c5a644afa4e1b3c64736f6c63430008090033",
  "linkReferences": {},
  "deployedLinkReferences": {}
}