{
  "_format": "hh-sol-artifact-1",
  "contractName": "RevnuRegistry",
  "sourceName": "contracts/RevnuRegistry.sol",
  "abi": [
    {
      "inputs": [
        {
          "internalType": "address",
          "name": "revnuTokenAddress",
          "type": "address"
        }
      ],
      "stateMutability": "nonpayable",
      "type": "constructor"
    },
    {
      "anonymous": false,
      "inputs": [
        {
          "indexed": false,
          "internalType": "uint256",
          "name": "bountyId",
          "type": "uint256"
        },
        {
          "indexed": false,
          "internalType": "address",
          "name": "bountyCreator",
          "type": "address"
        },
        {
          "indexed": false,
          "internalType": "string",
          "name": "actionId",
          "type": "string"
        },
        {
          "indexed": false,
          "internalType": "string",
          "name": "actionType",
          "type": "string"
        },
        {
          "indexed": false,
          "internalType": "uint256",
          "name": "actionCount",
          "type": "uint256"
        },
        {
          "indexed": false,
          "internalType": "uint256",
          "name": "noOfClaims",
          "type": "uint256"
        },
        {
          "indexed": false,
          "internalType": "uint256",
          "name": "reward",
          "type": "uint256"
        }
      ],
      "name": "BountyAdded",
      "type": "event"
    },
    {
      "anonymous": false,
      "inputs": [
        {
          "indexed": false,
          "internalType": "uint256",
          "name": "bountyId",
          "type": "uint256"
        },
        {
          "indexed": false,
          "internalType": "address",
          "name": "claimer",
          "type": "address"
        },
        {
          "indexed": false,
          "internalType": "bytes32",
          "name": "claimHash",
          "type": "bytes32"
        },
        {
          "indexed": false,
          "internalType": "uint256",
          "name": "claimReward",
          "type": "uint256"
        }
      ],
      "name": "BountyClaimed",
      "type": "event"
    },
    {
      "inputs": [],
      "name": "_bountiesCounter",
      "outputs": [
        {
          "internalType": "uint256",
          "name": "_value",
          "type": "uint256"
        }
      ],
      "stateMutability": "view",
      "type": "function"
    },
    {
      "inputs": [
        {
          "internalType": "uint256",
          "name": "",
          "type": "uint256"
        }
      ],
      "name": "bountyRegistry",
      "outputs": [
        {
          "internalType": "uint256",
          "name": "bountyId",
          "type": "uint256"
        },
        {
          "internalType": "address",
          "name": "bountyCreator",
          "type": "address"
        },
        {
          "internalType": "string",
          "name": "actionId",
          "type": "string"
        },
        {
          "internalType": "string",
          "name": "actionType",
          "type": "string"
        },
        {
          "internalType": "uint256",
          "name": "actionCount",
          "type": "uint256"
        },
        {
          "internalType": "uint256",
          "name": "noOfClaims",
          "type": "uint256"
        },
        {
          "internalType": "uint256",
          "name": "reward",
          "type": "uint256"
        }
      ],
      "stateMutability": "view",
      "type": "function"
    },
    {
      "inputs": [
        {
          "internalType": "uint256",
          "name": "_bountyId",
          "type": "uint256"
        }
      ],
      "name": "claimBounty",
      "outputs": [],
      "stateMutability": "payable",
      "type": "function"
    },
    {
      "inputs": [
        {
          "internalType": "bytes32",
          "name": "",
          "type": "bytes32"
        }
      ],
      "name": "claimRegistry",
      "outputs": [
        {
          "internalType": "uint256",
          "name": "bountyId",
          "type": "uint256"
        },
        {
          "internalType": "address",
          "name": "claimer",
          "type": "address"
        },
        {
          "internalType": "bytes32",
          "name": "claimHash",
          "type": "bytes32"
        }
      ],
      "stateMutability": "view",
      "type": "function"
    },
    {
      "inputs": [
        {
          "internalType": "string",
          "name": "_actionId",
          "type": "string"
        },
        {
          "internalType": "string",
          "name": "_actionType",
          "type": "string"
        },
        {
          "internalType": "uint256",
          "name": "_actionCount",
          "type": "uint256"
        },
        {
          "internalType": "uint256",
          "name": "_reward",
          "type": "uint256"
        }
      ],
      "name": "createBounty",
      "outputs": [],
      "stateMutability": "payable",
      "type": "function"
    },
    {
      "inputs": [],
      "name": "getLatestBountyId",
      "outputs": [
        {
          "internalType": "uint256",
          "name": "",
          "type": "uint256"
        }
      ],
      "stateMutability": "view",
      "type": "function"
    },
    {
      "inputs": [],
      "name": "revnuToken",
      "outputs": [
        {
          "internalType": "contract RevnuToken",
          "name": "",
          "type": "address"
        }
      ],
      "stateMutability": "view",
      "type": "function"
    }
  ],
  "bytecode": "0x608060405234801561001057600080fd5b50604051610ca7380380610ca783398101604081905261002f91610054565b600080546001600160a01b0319166001600160a01b0392909216919091179055610084565b60006020828403121561006657600080fd5b81516001600160a01b038116811461007d57600080fd5b9392505050565b610c14806100936000396000f3fe6080604052600436106100705760003560e01c80639aad017e1161004e5780639aad017e1461011a578063a606971914610131578063aeb7c8a314610164578063e31202c01461019c57600080fd5b806344021ad71461007557806356403b941461008a57806379bbce71146100b2575b600080fd5b610088610083366004610940565b6101af565b005b34801561009657600080fd5b5061009f610482565b6040519081526020015b60405180910390f35b3480156100be57600080fd5b506100f76100cd366004610940565b60036020526000908152604090208054600182015460029092015490916001600160a01b03169083565b604080519384526001600160a01b039092166020840152908201526060016100a9565b34801561012657600080fd5b5060015461009f9081565b34801561013d57600080fd5b5061015161014c366004610940565b610492565b6040516100a997969594939291906109a6565b34801561017057600080fd5b50600054610184906001600160a01b031681565b6040516001600160a01b0390911681526020016100a9565b6100886101aa366004610aa5565b6105e8565b600081815260026020526040902054811461020a5760405162461bcd60e51b81526020600482015260166024820152752137bab73a3c903237b2b9903737ba1032bc34b9ba1760511b60448201526064015b60405180910390fd5b60008181526002602052604090206004810154600590910154106102645760405162461bcd60e51b81526020600482015260116024820152702137bab73a3c9031b7b6b83632ba32b21760791b6044820152606401610201565b6000813360405160200161029492919091825260601b6bffffffffffffffffffffffff1916602082015260340190565b60408051601f1981840301815291815281516020928301206000818152600390935291206002015490915081141561030e5760405162461bcd60e51b815260206004820152601f60248201527f426f756e747920616c726561647920636c61696d656420627920757365722e006044820152606401610201565b604080516060810182528381523360208083019182528284018581526000868152600383528581209451855592516001850180546001600160a01b0319166001600160a01b03909216919091179055516002938401558582529190915290812060048101546006909101546103839190610b19565b905060016002600085815260200190815260200160002060050160008282546103ac9190610b3b565b909155505060408051848152336020820152908101839052606081018290527f7f4af57e5bf7d0f67d0d2232aa09ed824c46d1399ffdabfcbd2e5692c2a9ba099060800160405180910390a160005460405163a9059cbb60e01b8152336004820152602481018390526001600160a01b039091169063a9059cbb90604401602060405180830381600087803b15801561044457600080fd5b505af1158015610458573d6000803e3d6000fd5b505050506040513d601f19601f8201168201806040525081019061047c9190610b61565b50505050565b600061048d60015490565b905090565b600260208190526000918252604090912080546001820154928201805491936001600160a01b031692916104c590610b8a565b80601f01602080910402602001604051908101604052809291908181526020018280546104f190610b8a565b801561053e5780601f106105135761010080835404028352916020019161053e565b820191906000526020600020905b81548152906001019060200180831161052157829003601f168201915b50505050509080600301805461055390610b8a565b80601f016020809104026020016040519081016040528092919081815260200182805461057f90610b8a565b80156105cc5780601f106105a1576101008083540402835291602001916105cc565b820191906000526020600020905b8154815290600101906020018083116105af57829003601f168201915b5050505050908060040154908060050154908060060154905087565b6000546040516370a0823160e01b815233600482015282916001600160a01b0316906370a082319060240160206040518083038186803b15801561062b57600080fd5b505afa15801561063f573d6000803e3d6000fd5b505050506040513d601f19601f820116820180604052508101906106639190610bc5565b10156106a75760405162461bcd60e51b8152602060048201526013602482015272496e73756666696369656e7420546f6b656e7360681b6044820152606401610201565b816106f45760405162461bcd60e51b815260206004820152601a60248201527f416374696f6e436f756e742063616e6e6f74206265207a65726f0000000000006044820152606401610201565b610702600180546001019055565b600061070d60015490565b6040805160e0810182528281523360208083019182528284018a8152606084018a905260808401899052600060a0850181905260c0850189905286815260028084529590208451815592516001840180546001600160a01b0319166001600160a01b039092169190911790555180519596509294919361079393908501929101906108a7565b50606082015180516107af9160038401916020909101906108a7565b506080820151816004015560a0820151816005015560c082015181600601559050507f16d92ebf8d1048dc9322cfd77b7ea85ffa1440e92b09dc45129944a0d30f8b02813387878760008860405161080d97969594939291906109a6565b60405180910390a16000546040516323b872dd60e01b8152336004820152306024820152604481018490526001600160a01b03909116906323b872dd90606401602060405180830381600087803b15801561086757600080fd5b505af115801561087b573d6000803e3d6000fd5b505050506040513d601f19601f8201168201806040525081019061089f9190610b61565b505050505050565b8280546108b390610b8a565b90600052602060002090601f0160209004810192826108d5576000855561091b565b82601f106108ee57805160ff191683800117855561091b565b8280016001018555821561091b579182015b8281111561091b578251825591602001919060010190610900565b5061092792915061092b565b5090565b5b80821115610927576000815560010161092c565b60006020828403121561095257600080fd5b5035919050565b6000815180845260005b8181101561097f57602081850181015186830182015201610963565b81811115610991576000602083870101525b50601f01601f19169290920160200192915050565b8781526001600160a01b038716602082015260e0604082018190526000906109d090830188610959565b82810360608401526109e28188610959565b6080840196909652505060a081019290925260c090910152949350505050565b634e487b7160e01b600052604160045260246000fd5b600082601f830112610a2957600080fd5b813567ffffffffffffffff80821115610a4457610a44610a02565b604051601f8301601f19908116603f01168101908282118183101715610a6c57610a6c610a02565b81604052838152866020858801011115610a8557600080fd5b836020870160208301376000602085830101528094505050505092915050565b60008060008060808587031215610abb57600080fd5b843567ffffffffffffffff80821115610ad357600080fd5b610adf88838901610a18565b95506020870135915080821115610af557600080fd5b50610b0287828801610a18565b949794965050505060408301359260600135919050565b600082610b3657634e487b7160e01b600052601260045260246000fd5b500490565b60008219821115610b5c57634e487b7160e01b600052601160045260246000fd5b500190565b600060208284031215610b7357600080fd5b81518015158114610b8357600080fd5b9392505050565b600181811c90821680610b9e57607f821691505b60208210811415610bbf57634e487b7160e01b600052602260045260246000fd5b50919050565b600060208284031215610bd757600080fd5b505191905056fea26469706673582212206fe0d60599627136c8be20e277075a74be2bfc503f39198707704a86dd8bfc4564736f6c63430008090033",
  "linkReferences": {},
  "deployedLinkReferences": {}
}