{
  "_format": "hh-sol-artifact-1",
  "contractName": "RevnuRegistry",
  "sourceName": "contracts/RevnuRegistry.sol",
  "abi": [
    {
      "inputs": [
        {
          "internalType": "address",
          "name": "revnuTokenAddress",
          "type": "address"
        }
      ],
      "stateMutability": "nonpayable",
      "type": "constructor"
    },
    {
      "anonymous": false,
      "inputs": [
        {
          "indexed": false,
          "internalType": "uint256",
          "name": "bountyId",
          "type": "uint256"
        },
        {
          "indexed": false,
          "internalType": "string",
          "name": "actionId",
          "type": "string"
        },
        {
          "indexed": false,
          "internalType": "string",
          "name": "actionType",
          "type": "string"
        },
        {
          "indexed": false,
          "internalType": "uint256",
          "name": "actionCount",
          "type": "uint256"
        },
        {
          "indexed": false,
          "internalType": "uint256",
          "name": "actionCompleted",
          "type": "uint256"
        },
        {
          "indexed": false,
          "internalType": "uint256",
          "name": "reward",
          "type": "uint256"
        }
      ],
      "name": "BountyAdded",
      "type": "event"
    },
    {
      "anonymous": false,
      "inputs": [
        {
          "indexed": false,
          "internalType": "uint256",
          "name": "bountyId",
          "type": "uint256"
        },
        {
          "indexed": false,
          "internalType": "bytes32",
          "name": "claimHash",
          "type": "bytes32"
        }
      ],
      "name": "ClaimAdded",
      "type": "event"
    },
    {
      "inputs": [],
      "name": "_bountiesCounter",
      "outputs": [
        {
          "internalType": "uint256",
          "name": "_value",
          "type": "uint256"
        }
      ],
      "stateMutability": "view",
      "type": "function"
    },
    {
      "inputs": [
        {
          "internalType": "uint256",
          "name": "",
          "type": "uint256"
        }
      ],
      "name": "bountyRegistry",
      "outputs": [
        {
          "internalType": "uint256",
          "name": "bountyId",
          "type": "uint256"
        },
        {
          "internalType": "string",
          "name": "actionId",
          "type": "string"
        },
        {
          "internalType": "string",
          "name": "actionType",
          "type": "string"
        },
        {
          "internalType": "uint256",
          "name": "actionCount",
          "type": "uint256"
        },
        {
          "internalType": "uint256",
          "name": "actionCompleted",
          "type": "uint256"
        },
        {
          "internalType": "uint256",
          "name": "reward",
          "type": "uint256"
        }
      ],
      "stateMutability": "view",
      "type": "function"
    },
    {
      "inputs": [
        {
          "internalType": "uint256",
          "name": "_bountyId",
          "type": "uint256"
        }
      ],
      "name": "claimBounty",
      "outputs": [],
      "stateMutability": "payable",
      "type": "function"
    },
    {
      "inputs": [
        {
          "internalType": "bytes32",
          "name": "",
          "type": "bytes32"
        }
      ],
      "name": "claimRegistry",
      "outputs": [
        {
          "internalType": "uint256",
          "name": "bountyId",
          "type": "uint256"
        },
        {
          "internalType": "bytes32",
          "name": "claimHash",
          "type": "bytes32"
        }
      ],
      "stateMutability": "view",
      "type": "function"
    },
    {
      "inputs": [
        {
          "internalType": "string",
          "name": "_actionId",
          "type": "string"
        },
        {
          "internalType": "string",
          "name": "_actionType",
          "type": "string"
        },
        {
          "internalType": "uint256",
          "name": "_actionCount",
          "type": "uint256"
        },
        {
          "internalType": "uint256",
          "name": "_reward",
          "type": "uint256"
        }
      ],
      "name": "createBounty",
      "outputs": [],
      "stateMutability": "payable",
      "type": "function"
    },
    {
      "inputs": [],
      "name": "getLatestBountyId",
      "outputs": [
        {
          "internalType": "uint256",
          "name": "",
          "type": "uint256"
        }
      ],
      "stateMutability": "view",
      "type": "function"
    },
    {
      "inputs": [],
      "name": "revnuToken",
      "outputs": [
        {
          "internalType": "contract RevnuToken",
          "name": "",
          "type": "address"
        }
      ],
      "stateMutability": "view",
      "type": "function"
    }
  ],
  "bytecode": "0x608060405234801561001057600080fd5b50604051610c03380380610c0383398101604081905261002f91610054565b600080546001600160a01b0319166001600160a01b0392909216919091179055610084565b60006020828403121561006657600080fd5b81516001600160a01b038116811461007d57600080fd5b9392505050565b610b70806100936000396000f3fe6080604052600436106100705760003560e01c80639aad017e1161004e5780639aad017e146100fb578063a606971914610112578063aeb7c8a314610144578063e31202c01461017c57600080fd5b806344021ad71461007557806356403b941461008a57806379bbce71146100b2575b600080fd5b6100886100833660046108ae565b61018f565b005b34801561009657600080fd5b5061009f61042f565b6040519081526020015b60405180910390f35b3480156100be57600080fd5b506100e66100cd3660046108ae565b6003602052600090815260409020805460019091015482565b604080519283526020830191909152016100a9565b34801561010757600080fd5b5060015461009f9081565b34801561011e57600080fd5b5061013261012d3660046108ae565b61043f565b6040516100a996959493929190610914565b34801561015057600080fd5b50600054610164906001600160a01b031681565b6040516001600160a01b0390911681526020016100a9565b61008861018a366004610a01565b610584565b60008181526002602052604090205481146101ea5760405162461bcd60e51b81526020600482015260166024820152752137bab73a3c903237b2b9903737ba1032bc34b9ba1760511b60448201526064015b60405180910390fd5b60008181526002602052604090206003810154600490910154106102445760405162461bcd60e51b81526020600482015260116024820152702137bab73a3c9031b7b6b83632ba32b21760791b60448201526064016101e1565b6000813360405160200161027492919091825260601b6bffffffffffffffffffffffff1916602082015260340190565b60408051601f198184030181529181528151602092830120600081815260039093529120600101549091508114156102ee5760405162461bcd60e51b815260206004820152601f60248201527f426f756e747920616c726561647920636c61696d656420627920757365722e0060448201526064016101e1565b604080518082018252838152602080820184815260008581526003808452858220945185559151600190940193909355858352600290915291812091820154600590920154909161033e91610a75565b905060016002600085815260200190815260200160002060040160008282546103679190610a97565b909155505060408051848152602081018490527f05032c8dce98383a36455a0840ce14a50599b3ef1feb51dcbca72e157f410278910160405180910390a160005460405163a9059cbb60e01b8152336004820152602481018390526001600160a01b039091169063a9059cbb90604401602060405180830381600087803b1580156103f157600080fd5b505af1158015610405573d6000803e3d6000fd5b505050506040513d601f19601f820116820180604052508101906104299190610abd565b50505050565b600061043a60015490565b905090565b6002602052600090815260409020805460018201805491929161046190610ae6565b80601f016020809104026020016040519081016040528092919081815260200182805461048d90610ae6565b80156104da5780601f106104af576101008083540402835291602001916104da565b820191906000526020600020905b8154815290600101906020018083116104bd57829003601f168201915b5050505050908060020180546104ef90610ae6565b80601f016020809104026020016040519081016040528092919081815260200182805461051b90610ae6565b80156105685780601f1061053d57610100808354040283529160200191610568565b820191906000526020600020905b81548152906001019060200180831161054b57829003601f168201915b5050505050908060030154908060040154908060050154905086565b6000546040516370a0823160e01b815233600482015282916001600160a01b0316906370a082319060240160206040518083038186803b1580156105c757600080fd5b505afa1580156105db573d6000803e3d6000fd5b505050506040513d601f19601f820116820180604052508101906105ff9190610b21565b10156106435760405162461bcd60e51b8152602060048201526013602482015272496e73756666696369656e7420546f6b656e7360681b60448201526064016101e1565b816106905760405162461bcd60e51b815260206004820152601a60248201527f416374696f6e436f756e742063616e6e6f74206265207a65726f00000000000060448201526064016101e1565b61069e600180546001019055565b60006106a960015490565b6040805160c08101825282815260208082018981528284018990526060830188905260006080840181905260a084018890528581526002835293909320825181559251805194955091936107039260018501920190610815565b506040820151805161071f916002840191602090910190610815565b50606082015181600301556080820151816004015560a082015181600501559050507f8ffd410f66eea449ac54831113f08be3cc52acad3964e4e152df5657be8b9c268186868660008760405161077b96959493929190610914565b60405180910390a16000546040516323b872dd60e01b8152336004820152306024820152604481018490526001600160a01b03909116906323b872dd90606401602060405180830381600087803b1580156107d557600080fd5b505af11580156107e9573d6000803e3d6000fd5b505050506040513d601f19601f8201168201806040525081019061080d9190610abd565b505050505050565b82805461082190610ae6565b90600052602060002090601f0160209004810192826108435760008555610889565b82601f1061085c57805160ff1916838001178555610889565b82800160010185558215610889579182015b8281111561088957825182559160200191906001019061086e565b50610895929150610899565b5090565b5b80821115610895576000815560010161089a565b6000602082840312156108c057600080fd5b5035919050565b6000815180845260005b818110156108ed576020818501810151868301820152016108d1565b818111156108ff576000602083870101525b50601f01601f19169290920160200192915050565b86815260c06020820152600061092d60c08301886108c7565b828103604084015261093f81886108c7565b60608401969096525050608081019290925260a0909101529392505050565b634e487b7160e01b600052604160045260246000fd5b600082601f83011261098557600080fd5b813567ffffffffffffffff808211156109a0576109a061095e565b604051601f8301601f19908116603f011681019082821181831017156109c8576109c861095e565b816040528381528660208588010111156109e157600080fd5b836020870160208301376000602085830101528094505050505092915050565b60008060008060808587031215610a1757600080fd5b843567ffffffffffffffff80821115610a2f57600080fd5b610a3b88838901610974565b95506020870135915080821115610a5157600080fd5b50610a5e87828801610974565b949794965050505060408301359260600135919050565b600082610a9257634e487b7160e01b600052601260045260246000fd5b500490565b60008219821115610ab857634e487b7160e01b600052601160045260246000fd5b500190565b600060208284031215610acf57600080fd5b81518015158114610adf57600080fd5b9392505050565b600181811c90821680610afa57607f821691505b60208210811415610b1b57634e487b7160e01b600052602260045260246000fd5b50919050565b600060208284031215610b3357600080fd5b505191905056fea2646970667358221220e8277124399048b03a2b59ad0e70d87267f966bd1a4af7a9ec1b4bf4243a5f5464736f6c63430008090033",
  "linkReferences": {},
  "deployedLinkReferences": {}
}